:020000040800F2
:1000000070040020D1000008D9000008DB000008BF
:1000100000000000000000000000000000000000E0
:10002000000000000000000000000000DD000008EB
:100030000000000000000000DF0000089515000827
:10004000E3000008E3000008E3000008E300000804
:10005000E3000008E3000008E3000008E3000008F4
:10006000E3000008E3000008E3000008E3000008E4
:10007000E3000008E3000008E3000008751600082C
:10008000E3000008E300000800000000E3000008AF
:10009000E3000008E3000008E3000008E3000008B4
:1000A000E3000008E3000008E3000008E3000008A4
:1000B000E300000800000000E30000080348854654
:1000C00000F08EF800480047091A0008700400206C
:1000D0000448804704480047FEE7FEE7FEE7FEE7E6
:1000E000FEE7FEE701160008BD00000830B50B462C
:1000F000014600202022012409E00D46D5409D4202
:1001000005D31D469540491B254695404019154687
:10011000521E002DF1DC30BDF0B51FB406460020A4
:1001200082B005464024019100901BE001992246CF
:100130000F46304600F020F8049A059B801A99413A
:1001400010D310461946224600F039F8361A8F416E
:100150000197224601200021009F00F030F8381856
:100160004D4100902046641E0028DFDC019B009872
:100170002946324607B0F0BD10B5202A04DB0846F8
:10018000203AD040002110BD0B46D340D04020245F
:10019000A21A91400843194610BDD2B201E0027084
:1001A000401C491EFBD270470022F6E710B51346EB
:1001B0000A4604461946FFF7F0FF204610BD10B569
:1001C000202A04DB0146203A9140002010BD9140D6
:1001D00020239C1A0346E3401943904010BD0000C1
:1001E000064C0125064E05E0E36807CC2B430C3C8A
:1001F00098471034B442F7D3FFF764FF541A00084D
:10020000741A000800BFFEE770B5044600F016F946
:1002100006462546681C002802D0054800782D189F
:1002200000BF00F00BF9801BA842FAD370BD00009C
:100230002400002078B503460022DDE00126964028
:100240000C683440002C7DD04D68022D02D04D68E2
:10025000122D15D1D508AE001D462035A8595507D9
:10026000EE0E0F25B5400646AE4330465607F60E55
:100270000D69B5402843D508AD001E4620367051A3
:10028000186856000325B5400646AE4330460D7942
:10029000AD07AD0F5600B540284318604D68012DDD
:1002A00008D04D68022D05D04D68112D02D04D6843
:1002B000122D18D1986856000325B5400646AE4366
:1002C00030465600CD68B5402843986058680125EF
:1002D00095400646AE43304610264D6835402D0900
:1002E000954028435860D86856000325B540064617
:1002F000AE43304656008D68B5402843D86001268D
:1003000036074D683540B54275D100BF3D4DAD69EA
:10031000012635433B4EB5613546AD69ED07ED0F1E
:10032000009500BF00BF384D9608B600A859950744
:100330002E0F0F25B5400646AE4330460925ED0683
:10034000AB4200E057E001D100250FE02F4DAB425A
:1003500001D101250AE02E4DAB4201D1022505E075
:100360002C4DAB4201D1032500E005259607360F41
:10037000B5402843244D9608B600A851264D28685C
:100380000546A5432846012636044D683540B5424A
:1003900002D10546254328461F4D2860686805465A
:1003A000A5432846012676044D683540B54202D162
:1003B000054625432846184D6860A8680546A543AC
:1003C0002846012636054D683540B54202D105461E
:1003D00025432846104DA860E8680546A5432846F1
:1003E000012676054D683540B54202D105462543C4
:1003F0002846094DE860521C0D68D540002D00D0FC
:100400001CE778BD001002400800014000040048CD
:1004100000080048000C00480004014042690A40FE
:10042000002A02D00A04826100E081617047002A3C
:1004300001D0816100E081627047000001480068DE
:10044000704700001C000020034800680349097839
:1004500040180149086070471C000020240000205B
:1004600010B50648006810210843044908600020C0
:1004700000F006F800F02EF8002010BD0020024029
:1004800070B50446104801787D20C000FFF72EFEAD
:10049000064631460D480068FFF728FE054600F085
:1004A00035FC002801D0012070BD042C07D20022A9
:1004B0002146501E00F03CF80548046001E0012090
:1004C000F2E70020F0E700002400002028000020D0
:1004D0002000002008B500BF0D48806901210843B5
:1004E0000B49886108468069C007C00F009000BFB3
:1004F00000BF00BF0846C069090408430449C86139
:100500000846C06909040840009000BF00BF08BD4C
:10051000001002400146002905DBCB06DB0E01225C
:100520009A40024B1A6000BF7047000000E100E0F3
:1005300070B504460D4616462946204601F018FAC5
:1005400070BD000070B504460D46002C01D101209D
:1005500070BD52480068C007C00FA8420ED24F4875
:1005600000684008400028434C490860084600687D
:10057000C007C00FA84201D00120E9E7022120688E
:100580000840022814D1042120680840042807D11B
:1005900043484068072109028843401840494860A1
:1005A0003F484068F0218843A16808433C494860BF
:1005B0002078C007C00F00283BD06068012808D110
:1005C00037480068012149040840002815D101205E
:1005D000BEE76068022808D1314800680121490659
:1005E0000840002809D10120B2E72D480068022107
:1005F0000840002801D10120AAE729484068800866
:1006000080006168084326494860FFF717FF0646E7
:1006100007E0FFF713FF801B2249884201D903201E
:1006200096E71F4840680C210840616889008842AD
:10063000EFD11A480068C007C00FA8420ED917486A
:1006400000684008400028431449086008460068D4
:10065000C007C00FA84201D0012079E7042120681B
:100660000840042808D10E48406807210902884341
:10067000E16808430A49486000F01AF808494968E7
:10068000F02211400909084A515CC8400749086036
:100690000020FFF7F5FE00205AE70000002002408E
:1006A00000100240881300003C1A000828000020B7
:1006B000F0B589B027A001460EC9C06805AC0EC4CC
:1006C000089028A001460EC9C06801AC0EC4049071
:1006D00000240025002700260020009025484468BB
:1006E0000C20204000282DD0042802D0082828D132
:1006F00002E02148009028E00F2080042040800C78
:1007000005A90E5C1B48C06A0007000F01A90D5C1B
:100710000120000420400121090488420AD12A4610
:10072000002315481946FFF7F7FC314601F007F999
:10073000074604E01148314601F001F907460097E9
:1007400003E000BF0C48009000BF00BF009809B054
:10075000F0BD000002030405060708090A0B0C0D92
:100760000E0F10100102030405060708090A0B0CFE
:100770000D0E0F100010024000127A0000093D001B
:10078000FEB50446002C01D10120FEBD2078C00733
:10079000C00F002871D0FC4840680C210840042894
:1007A0000BD0F94840680840082812D1F648406844
:1007B00001210904084088420BD1F3480068012157
:1007C0004904084000286BD06068002868D10120E7
:1007D000DBE700BF6068012807D1EB480068012112
:1007E00009040843E849086031E0606800280ED138
:1007F000E5480068012109048843E3490860084688
:100800000068012189048843DF4908601FE06068AF
:1008100005280ED1DC480068012189040843DA4923
:10082000086008460068012109040843D6490860A9
:100830000DE0D5480068012109048843D2490860C9
:1008400008460068012189048843CF49086000BF39
:100850006068002812D0FFF7F1FD054606E0FFF7BB
:10086000EDFD401B642801D903208EE7C6480068CF
:100870000121490408400028F1D011E0FFF7DEFD16
:10088000054606E0FFF7DAFD401B642801D9032086
:100890007BE7BD4800680121490408400028F1D1E8
:1008A000022120680840022861D1B74840680C2125
:1008B000084000280BD0B4484068084008281BD1E5
:1008C000B1484068012109040840002814D1AE480D
:1008D000006802210840002804D0E068012801D007
:1008E000012052E7A8480068F82188432169C9001F
:1008F0000843A54908603AE0E068002820D0A248F3
:10090000006801210843A0490860FFF797FD0546EC
:1009100006E0FFF793FD401B022801D9032034E7CE
:1009200099480068022108400028F2D096480068E3
:10093000F82188432169C90008439349086016E0FB
:1009400091480068400840008F490860FFF776FD35
:10095000054606E0FFF772FD401B022801D903207F
:1009600013E789480068022108400028F2D10821D5
:1009700020680840082831D1E069002817D0824853
:10098000406A0121084380494862FFF757FD054648
:1009900006E0FFF753FD401B022801D90320F4E6CF
:1009A0007948406A022108400028F2D016E07648D3
:1009B000406A4008400074494862FFF73FFD054621
:1009C00006E0FFF73BFD401B022801D90320DCE6CF
:1009D0006D48406A022108400028F2D104212068B5
:1009E0000840042873D1002001906748C069890637
:1009F000084000280ED100BF6348C069084362491F
:100A0000C8610846C06909040840009000BF00BFE3
:100A1000012001905D480068FF2101310840002855
:100A200016D15A480068084358490860FFF706FD88
:100A3000054606E0FFF702FD401B642801D90320AC
:100A4000A3E652480068FF21013108400028F1D098
:100A500000BFA068012806D14B48006A0121084365
:100A6000494908622BE0A06800280CD14648006A7A
:100A700040084000444908620846006A042188434F
:100A8000414908621BE0A06805280CD13E48006A75
:100A9000042108433C4908620846006A01210843D2
:100AA000394908620BE03848006A4008400036497E
:100AB00008620846006A042188433349086200BF7F
:100AC000A068002813D0FFF7B9FC054608E02BE02A
:100AD000FFF7B4FC401B2E49884201D9032054E69D
:100AE0002948006A022108400028F1D011E0FFF7F0
:100AF000A5FC054607E0FFF7A1FC401B24498842FE
:100B000001D9032041E62048006A0221084000285C
:100B1000F1D10198012806D11B48C06901210907BC
:100B200088431949C86100BF102120680840102877
:100B300060D1606901282DD11348406B042108431E
:100B4000114948630846406B012108430E49486338
:100B5000FFF774FC054606E0FFF770FC401B022817
:100B600001D9032011E60848406B02210840002803
:100B7000F2D00548406BF8218843A169C9000843B9
:100B80000149486336E00000001002400070004058
:100B9000881300006069401D00280FD15A48406B3F
:100BA00004218843584948630846406BF82188432C
:100BB000A169C9000843544948631BE05248406B8F
:100BC00004210843504948630846406B40084000F0
:100BD0004863FFF733FC054606E0FFF72FFC401B98
:100BE000022801D90320D0E54748406B0221084084
:100BF0000028F2D1206A00284FD0434840680C21D9
:100C00000840082864D0206A022847D13E4800687E
:100C10000121090688433C490860FFF70FFC05469F
:100C200006E0FFF70BFC401B022801D90320ACE5CE
:100C3000354800680121490608400028F1D100BF6D
:100C40003148C06A00090001E16A08432E49C862C0
:100C5000616AA06A08432C4949683D221204914305
:100C600008432949486000BF084600680121090679
:100C7000084325490860FFF7E1FB054606E0FFF75A
:100C8000DDFB401B022801D903207EE51E480068D9
:100C90000121490608400028F1D033E01A480068D5
:100CA00001210906884318490860FFF7C7FB05467C
:100CB00006E0FFF7C3FB401B022801D9032064E5CF
:100CC000114800680121490608400028F1D119E0C7
:100CD000206A012800D158E50B484668C76A012000
:100CE00000043040616A88420AD13907090FE06A7E
:100CF000814205D10F2080043040A16A884201D092
:100D0000012042E5002040E50010024070B5044695
:100D10002546681E0949884201D901200CE0681E59
:100D2000074948610321081F00F022FE0020044902
:100D3000886107200861002070BD0000FFFFFF00F0
:100D400000E000E07047704730B502460B4600BF38
:100D50003C20805C012801D1022030BD01253C20CF
:100D6000855400BF02253D208554106844681068F2
:100D7000816870252046A84304461868044310681B
:100D80004460114D1068A8420CD00125AD071068D1
:100D9000A84207D00D4D1068A84203D00C4D106832
:100DA000A84207D180250846A84301465868014358
:100DB0001068816001253D20855400BF00253C203E
:100DC000855400BF0020C8E7002C0140000400400B
:100DD0000040014010B50446002C01D1012010BD97
:100DE0003D20005D002805D100213C200155204612
:100DF00000F00CF802213D200155211D206800F073
:100E000041FC01213D2001550020E8E710B586B0E6
:100E10000446142101A8FFF7C7F9012189072068BA
:100E2000884233D100BF1A48C069012108431849DC
:100E3000C8610846C069C007C00F009000BF00BF6E
:100E400000BF084640690121490408431049486130
:100E500008464069012149040840009000BF00BFD6
:100E600002200190029000200390032004900220B1
:100E7000059001A90920C006FFF7DCF90022114600
:100E80000F20FFF755FB0F20FFF744FB06B010BD06
:100E900000100240F8B504460D4600BF3C20005D3E
:100EA000012801D10220F8BD01213C20015500BFDD
:100EB00002213D200155206886687721304688430D
:100EC0000646FF21090230468843064620688660B0
:100ED0002868502834D00CDC202851D004DC0028AD
:100EE0004CD0102852D14AE030284AD040284DD169
:100EF0003AE060282ED0702807D001210903401A5B
:100F000002D0401A42D10DE041E0EB686A68A9685E
:100F1000206800F020FC206886687720064320685F
:100F2000866034E0EB686A68A968206800F013FC0A
:100F3000206880680121890308432168886026E0D1
:100F4000EA686968206800F020FC5021206800F001
:100F500010FC1CE0EA686968206800F069FC602108
:100F6000206800F006FC12E0EA686968206800F07A
:100F70000CFC4021206800F0FCFB08E000BF00BF33
:100F800000BF2968206800F0F4FB00E000BF00BF4C
:100F900001213D20015500BF00213C20015500BF2B
:100FA000002080E710B504460121890720688842A7
:100FB00075D10421204600F03FFA394908600846FF
:100FC0000068384988420BD2354800683649884263
:100FD00006D90220354908600020354908605BE0E9
:100FE00032480068022857D32D48006831498842AA
:100FF00006D22B4800683049884201D9012000E020
:1010000000202E490880264800682D49884207D2D2
:1010100023480068D321C900884201D9012000E09B
:1010200000202849088025480088002803D1084668
:101030000088002814D01D480068401C1B49086027
:101040001B48006840001A4908601E4800880028B4
:101050000BD008460068012108431549086004E0E8
:1010600000201249086012490860104800682028D2
:1010700012D30F48006814490860084600681349F5
:101080000870114800680002000E11490870002025
:10109000064908600649086000202168486210BDC2
:1010A00018000020EB4100008D2700000800002000
:1010B000000000201A060000AA0300001000002013
:1010C000FC0A000012000020040000201400002090
:1010D00015000020F8B504460D46164600BF3C201A
:1010E000005D012801D10220F8BD01213C200155FD
:1010F00000BF02213D200155002E12D1EB686A6825
:101100002968206800F05AFB206880690C21884318
:101110002168886120688069A9680843216888611E
:101120003FE0042E14D1EB686A682968206800F05B
:1011300098FB2068806903218902884321688861BF
:1011400020688069A968090208432168886128E04D
:10115000082E12D1EB686A682968206800F0A5FBA8
:101160002068C0690C2188432168C8612068C06973
:10117000A96808432168C86113E0EB686A682968B8
:10118000206800F0B5FB2068C0690321890288430C
:101190002168C8612068C069A968090208432168FC
:1011A000C86101213D20015500BF00213C200155AF
:1011B00000BF002098E710B50446002C01D10120A3
:1011C00010BD3D20005D002805D100213C200155C7
:1011D000204600F00CF802213D200155211D206819
:1011E00000F050FA01213D2001550020E8E770474A
:1011F00070B504460D46002D06D0042D0BD0082DE9
:1012000010D00C2D1CD114E02068C06802210843C6
:101210002168C86015E02068C0680421084321687F
:10122000C8600EE02068C068082108432168C860D3
:1012300007E02068C068102108432168C86000E00A
:1012400000BF00BF01222946206800F073FA206821
:1012500080684607760F062E05D0206800680121B9
:10126000084321680860002070BD10B5044620685E
:10127000006902210840400800281CD02068C0688E
:1012800008404008002816D0481F21680861012046
:101290002077206880698007800F002803D02046CF
:1012A000FFF780FE05E0204600F0C3F8204600F07E
:1012B000C1F80020207720680069042108408008D8
:1012C00000281DD02068C06808408008002817D07A
:1012D000C8432168086102202077206880690321C3
:1012E00009020840002803D02046FFF75BFE05E016
:1012F000204600F09EF8204600F09CF80020207761
:101300002068006908210840C00800281CD0206817
:10131000C0680840C008002816D0C843216808618A
:10132000042020772068C0698007800F002803D040
:101330002046FFF737FE05E0204600F07AF8204609
:1013400000F078F80020207720680069102108401C
:10135000000900281DD02068C06808400009002846
:1013600017D0C84321680861082020772068C06929
:10137000032109020840002803D02046FFF712FE8F
:1013800005E0204600F055F8204600F053F8002014
:10139000207720680069C007C00F012148404840FD
:1013A00000280CD02068C068084048404840002809
:1013B00005D0C81E21680861204600F03CF820686E
:1013C000006980210840C00900280BD02068C0684F
:1013D0000840C009002805D0C8432168086120469C
:1013E000FFF7B0FC20680069402108408009002810
:1013F0000BD02068C06808408009002805D0C84389
:1014000021680861204600F031F820680069202139
:101410000840400900280BD02068C06808404009F7
:10142000002805D0C843216808612046FFF78BFCDF
:1014300010BD70477047704702460020002906D053
:10144000042907D0082908D00C290CD108E013681A
:10145000586B09E01368986B06E01368D86B03E0DB
:101460001368186C00E000BF00BF704770470000B1
:1014700000B587B0142102A8FEF796FE00BF1848F9
:1014800040690121490408431549486108464069FB
:10149000012149040840019000BF00BF00BF10486F
:1014A0004069890008430E494861084640690121A6
:1014B000C9040840019000BF00BF002289120948FA
:1014C000FEF7B5FF012040020290012003900020AA
:1014D0000490059002A90348FEF7ACFE07B000BDDA
:1014E000001002400008004800B58BB000200790B3
:1014F000089009900A900590069001900290039040
:10150000049001208007214908602F2048600021B5
:101510001E4881601E49C160002101618161FFF7A1
:1015200059FC002801D0FEF76DFE01200003079052
:1015300007A91648FFF7AEFC002801D0FEF762FEAF
:101540001248FFF738FE002801D0FEF75BFE0020AE
:101550000590069005A90D48FFF7F6FB002801D07D
:10156000FEF750FE0220019001200290002003901F
:101570000F200490042201A90448FFF7ABFD0028C6
:1015800001D0FEF73FFE0BB000BD00002C00002094
:10159000A086010010B5FEF757FF10BD00B591B051
:1015A000302105A8FEF700FE002001900290039074
:1015B000049002200590012008901020099002203C
:1015C0000D9000210E910521C9040F910021109169
:1015D00005A8FFF7D5F8002801D0FEF713FE072075
:1015E000019002200290002003900490012101A8A4
:1015F000FEF7A8FF002801D0FEF704FE11B000BDE1
:1016000019480068012108431749086008464068E6
:1016100016490840144948600846006814490840C3
:1016200011490860084600680121890488430E4971
:101630000860084640683F21090488430A49486019
:101640000846C06A00090001C8620846006BFF2115
:1016500054318843044908630846406B4008400001
:101660004863002088607047001002400CB8FFF803
:10167000FFFFF6FE10B50248FFF7F7FD10BD0000B2
:101680002C00002010B50268244B984206D001239C
:101690009B07984202D0224B984205D170241346F2
:1016A000A3431A464B681A431C4B984212D001239D
:1016B0009B0798420ED01A4B98420BD0194B984278
:1016C00008D0194B984205D0184B984202D0184BBD
:1016D000984206D1032424021346A3431A46CB683A
:1016E0001A4380241346A3434C6923431A460260DD
:1016F0008B68C3620B688362084B984208D00A4B20
:10170000984205D0094B984202D0094B984201D12A
:101710000B6903630123436110BD0000002C0140ED
:10172000000400400020004000400140004401400F
:101730000048014070B5CD06ED0E0124AC402346B3
:10174000046A9C430462046ACE06F60E1546B54050
:101750002C43046270BD70B50C468168FF263602CA
:101760000D46B54329461D02154325432943816093
:1017700070BD10B50A46816870240B46A343194614
:10178000072313431943816010BD70B50B461446FF
:10179000026A056A6D086D0005628169F0260D46D2
:1017A000B5432946250129430A261546B5432A464D
:1017B00015461D432A468161026270BDF0B50C4694
:1017C000066A7608760006628169056A154EB0429F
:1017D00009D00126B607B04205D0134EB04202D060
:1017E000124EB04201D1012600E00026002E05D0A5
:1017F000890889000E461643314601E0012631432F
:10180000F0260F46B74339461E01F0273E403143CC
:101810000A262F46B7433D4626403543816105627F
:10182000F0BD0000002C01400004004000400140D9
:1018300070B50B461446056A1026B54305628169EA
:10184000026A0F2636030D46B54329462503294370
:10185000A0261546B5432A461D012A43816102622E
:1018600070BDF0B50C46066A1027BE43066281695A
:10187000056A032636020F46B7433946160231433E
:101880000F2636030F46B74339461E030F273F0383
:101890003E403143A0262F46B7433D462601A027B0
:1018A0003E40354381610562F0BDF0B50C46066AE5
:1018B000FF270137BE430662C169056A89088900AE
:1018C0000E4616433146F0260F46B74339461E01F1
:1018D000F0273E403143052676022F46B7433D466A
:1018E000260205277F023E403543C1610562F0BDF7
:1018F000F0B50C46066A01273F03BE430662C16984
:10190000056A032636020F46B743394616023143AD
:101910000F2636030F46B74339461E030F273F03F2
:101920003E403143052676032F46B7433D46260306
:1019300005277F033E403543C1610562F0BDF8B520
:1019400082B28BB2040C0D0C10465843002126467F
:101950005E43370C36048019794116466E43370CC6
:1019600036048019794126466E438919F8BD000076
:1019700010B5002819DB1A4A03231B02D21883086A
:101980009B00D2588307DC0EFF23A3409A438B07AA
:101990001B0E8407E40EA3401A43114B03242402B8
:1019A0001B198408A4001A5118E00E4A03071B0FE4
:1019B000083B9B089B00D2588307DC0EFF23A34003
:1019C0009A438B071B0E8407E40EA3401A43054B72
:1019D0000407240F083CA408A4001A5110BD0000FD
:1019E00000E100E01CED00E002E008C8121F08C1A1
:1019F000002AFAD170477047002001E001C1121F90
:101A0000002AFBD170470000FEF72AFDFFF7C6FD54
:101A1000FFF72EFDFFF768FD04210648FFF7E8FBFE
:101A200007E0012149020448FEF7F8FCC820FEF750
:101A3000EBFBF6E72C000020000800480000000047
:101A4000000000000102030406070809000000006E
:101A500001020304741A0008000000202C0000009A
:101A6000E8190008A01A00082C0000204404000017
:101A7000F81900080000000000000000000000004D
:101A80000000000000000000000000000000000056
:101A900000000000040000000100000000127A00B5
:04000005080000BD32
:00000001FF
